:100000000C9434000C9446000C9446000C9446006A
:100010000C9446000C9446000C9446000C94460048
:100020000C9446000C9446000C9446000C94460038
:100030000C9446000C9446000C9446000C94460028
:100040000C9446000C9446000C9446000C94460018
:100050000C9446000C9446000C9446000C94460008
:100060000C9446000C94460011241FBECFEFD8E03C
:10007000DEBFCDBF11E0A0E0B1E001C01D92AA300B
:10008000B107E1F70E9472000C94A1000C940000EB
:1000900080E480937C00EAE7F0E086E8808380815A
:1000A00080648083089590917C008770987F892B6D
:1000B00080937C0080917A00806480937A008091A4
:1000C0007A0086FDFCCF2091780040917900942F32
:1000D00080E030E0822B932B9595879595958795B9
:1000E00080580895789480E480937C0086E880931B
:1000F0007A0080917A00806480937A008FEF84B9CF
:1001000080E00E9453008093060120910001280F97
:10011000209300012093010190E018160CF491E067
:100120009093030180910501992319F0281730F469
:1001300002C0821718F485B1809585B92093050116
:06014000DFCFF894FFCFB1
:00000001FF
